01REMESSA01COBRANCA       00000000000000027846                              133Cresol                                                                                                                                                                                                                                                                                                                     000001
0                                                                                                                                                                                                                                                                                                                                                                                                         000002
